:020000040000FA
:10000000831685148601831201300130860060203A
:10001000602060200B28051C3828851C10280B2820
:10002000861F15287F3086000828061F1A283F30B3
:1000300086000828861E1F281F3086000828061EF6
:1000400024280F3086000828861D292807308600BE
:100050000828061D2E28033086000828861C332811
:10006000013086000828061C082800308600082871
:1000700006183D28013086000828861842280330DB
:1000800086000828061947280730860008288619A0
:100090004C280F3086000828061A51281F30860089
:1000A0000828861A56283F3086000828061B5B2839
:1000B0007F3086000828861B0828FF308600082825
:1000C000FF300C088C0B65280800FF300D088D0BE5
:0400D0006728622813
:02400E00F13F80
:00000001FF
